:080000000C9470000C94000048
:100008000C9400000C9400000C9400000C94000068
:100018000C9400000C9400000C9400000C94000058
:100028000C9400000C9400000C9400000C94000048
:100038000C9400000C9400000C9400000C94000038
:100048000C9400000C9400000C94000000000000C8
:1000580001030206040C0809416E676C653D00DF68
:100068000052616E696E672050726F672E2E0050C5
:10007800726F6720436F6D706C657465642E004DF8
:100088006F746F7220416E676C653D0001002D4EE4
:10009800414E00494E46000080C004000400540050
:1000A800080096015800070060016000020067011F
:1000B80067000E00690169001000770177000D00E4
:1000C800870187000200940167000100BE019400C7
:1000D8000200C201A0000000F894EE27ECBBF1E09A
:1000E800FBBFEBBFE5BF8DE0A2E0BB27ED938A9590
:1000F800E9F780E094E0A0E6ED930197E9F7E2EAFA
:10010800F0E085919591009761F0A591B5910590E2
:100118001590BF01F00105900D920197E1F7FB01E1
:10012800F0CFEFE5EDBFE4E0EEBFC0E6D1E00C9420
:1001380082011A931FE3E0EFE7BBEFEFE8BB1F3341
:1001480009F045C0C4988BE18A95F1F7B09902C0CF
:1001580017E30AC0B19902C014E306C0B29902C0FD
:1001680011E302C0B39B13E6C49AC5988BE18A9544
:10017800F1F7B09902C018E30AC0B19902C015E3BB
:1001880006C0B29902C012E302C0B39B10E3C59A3D
:10019800C6988BE18A95F1F7B09902C019E30AC0B5
:1001A800B19902C016E306C0B29902C013E302C0B7
:1001B800B39B1DE3C69AC7988BE18A95F1F7B2996C
:1001C80002C01DE202C0B39B1BE2C79AB8CFEFE0A2
:1001D800E8BBE6B3EF70EF30E1F70E94B703E12F19
:1001E80019910895BA93AA9324970E942206A98583
:1001F800AA231AF0E885F98504C0E885F9850E94E4
:10020800D0050E94DC050E949304DF01CB01EDECD0
:10021800FCEC6CEC7EE30E946B050E945C049F0181
:100228000E94BB03ADECBCEC8CEC9EE30E941D0568
:10023800EC83FD836E837F830E940203A0E6B1E016
:100248000E942303EC81FD816E817F810E940B0651
:10025800E1E0EA93AEE9B1E00E940C02A985AA2385
:1002680012F0ABE201C0ADE20E940E03AEE9B1E0CC
:100278000E942303A7E6B1E00E9423030E94C00363
:10028800A9E6B1E00E942303A985AA23AAF000E009
:1002980010E0021713077CF4F30131963F01E7E001
:1002A800F0E0E615F70514F4662477240E94C503E8
:1002B8000F5F1F4FEECF14C000E010E002171307C6
:1002C8007CF4F30131973F010024601470041CF49E
:1002D800E7E0F0E03F010E94C5030F5F1F4FEECF3C
:1002E8000E94C003A7E7B1E00E942303A8EBBBE08C
:1002F8000E941D040E9427062A960895E0E0EBBBA1
:10030800EFE0EABBE0919601EBBBA0E10E94340369
:100318000E940203A7E8B1E00E9423035A924A927E
:10032800AEE9B1E00E94DE010E94C003002440143F
:1003380050041CF0ABE20E940E03AEE9B1E00E944B
:100348002303A4E9B1E00E942303F3DE1E2F1B322E
:1003580011F01D3291F41B3239F400240414050401
:1003680014F00E94CC0308C01D3231F4002440145C
:10037800500414F00E94CC031BC01D3319F4D201A1
:1003880031DF16C0133619F44424552411C0E4E6AD
:10039800F0E04E165F0664F4F201AAE0B0E00E94B5
:1003A800E905DF01E12FF0E0F097EA0FFB1F2F01CD
:1003B800AFCFFFCFBA93AA93A991B991E991F991D7
:1003C80030962AF4E095F09531966DE26D93E894B5
:1003D80080E197E20DD088EE93E00AD084E6992771
:1003E80007D08AE005D06E2F10D066276C93089549
:1003F8006627E817F90720F06395E81BF90BC9F79A
:10040800662311F416F008956894605D6D9308955D
:10041800BA93AA932497E0E0E883E983EA83EFE3B9
:10042800EB831A930A93EB85FC85EF3FAFEFFA074E
:1004380039F40E94D303A6E9B0E00E94AA03ADC034
:10044800EF3FAFE7FA0739F40E94D303A7E9B0E01A
:100458000E94AA03A2C0AC85AA2362F4E985FA85A2
:100468006B857C850E9427040E94D8030E94DD03C7
:10047800EDE2EC93A885A73010F0E6E0E887188550
:10048800E12F1150E03039F00E94E4030E94E903A3
:100498000E94F003F5CF0E94F5030E94CD040E944C
:1004A800D80310E0E0E0F0E060E87FE30E94F003AA
:1004B8000E94F5030E94B00588F00E94E4030E94A0
:1004C800FE030E94F0031F5F173238F00E94D30327
:1004D800ABE9B0E00E94AA0360C0EACF103029F46B
:1004E8000E94DD03E0E3EC932DC0E12F1150E030D2
:1004F80049F10E94E4030E94E903A0E0B0E080E033
:100508009FE30E94CD04DF01CB010E9493030E9468
:10051800F0030E94F5030E946B050E945A040E2FF7
:100528000E94DD03E02FE05DEC93E02FF0E00E94F5
:10053800E4030E94BB030E941D050E9405040E945B
:100548000A04D3CFE885E03021F10E94DD03EEE212
:10055800EC93E885E150E887EF5FD9F00E94050445
:100568000E94FE030E94D803E985FA856B857C8585
:100578000E945A040E2F0E94DD03E02FE05DEC93E9
:10058800E02FF0E00E9405040E94BB030E940A04C9
:10059800E0CFAE81BF81E0E0EC93198108812D9610
:1005A8000895AA93E5B3EF70AE2FE881E07FEA2BB8
:1005B800E5BB8DE08A95F1F7AA9A8DE08A95F1F767
:1005C800AA988DE08A95F1F777C0AA93A881E9DF08
:1005D800E881E295E883A881E4DF85E88A95F1F768
:1005E8006BC0AA93E881F0E0EE53FE4FE081A98149
:1005F800AE0FEBDF9980888022960895A2E00E94D2
:100608000F04ACE0E2DFA1E00E940F04E0E08E2ED0
:100618009E2E0895AA93A881AA3011F09B1448F041
:10062800E0E0EA938394A82DDCDFA881AA3009F4DE
:1006380043C09394A89AA881C8DFA8983DC0BA93EC
:10064800AA931A93A981BA81ED91A983BA831E2F1F
:10065800E03019F0A12FDEDFF5CF18812396089539
:10066800AA93E4B3E06FE4BBA29AA09AA19AAA98CD
:10067800A898A998B880E881E058E093C401E88177
:10068800E054E093C501A4E1B0E00E941D040E947B
:1006980015040E9415040E941504A0E282DF88EC6C
:1006A80090E00197F1F7A8E290DFA4E08EDFA5E8DB
:1006B8008CDFA6E08ADFA2DF219608950E9410064B
:1006C8007B816A81F981E88177FB770F67FD71602B
:1006D800972F9E5781F078F0983190F4AA27BB277E
:1006E800882708948795B795A7959A95D1F7EA230F
:1006F800FB23682305C0E8947727EE27FF276627A2
:100708006F77769508F4606877F9A991B99189911E
:100718009991EA17FB076807790797FB08950E94E4
:1007280010060E9401060E9462030E94060619F440
:100738000E94FC0509C0E6F70E94FC05A0E0B0E0B5
:1007480080E89FE30E94C60424960895BA93AA936A
:10075800E991F991A991B991CD0105900D920020E7
:10076800E1F7FC010895A2E3B0E00C941D040E9497
:10077800DC050E9493040895E0E0EA93A1E00C945C
:10078800F502A6E9B1E0A60DB71DEC91EBBBEBCFE6
:10079800F201AFEFBFEF0E94E9052F010895EE8146
:1007A800FF81FA93EA930895E987FA876B877C8734
:1007B8000895AE81BF811196AE83BF8311970895C6
:1007C800AA81BB818C819D810895EDECFCEC6CECD9
:1007D8007DE30E941D050895EA83FB836C837D8376
:1007E8000895EA81FB816C817D81A985BA858B8515
:1007F8009C850895E0E0F0E060E271E40E941D0548
:100808000895A985BA858B859C8508950E9415064B
:100818000E94C604C9CF0E94E902A3E0B0E00C948C
:100828001D04A0E30E94D50288EC90E00197F1F73F
:100838000895109639F080ED97E00197F1F7A895A3
:100848001197C9F7089530976040704009F07058C3
:100858000895552342F4503811F4E0FF04C031964E
:10086800691F791F6BF050E8572711F45F93CFC0C9
:100878005F3F31F0660F000C57956795752F089507
:100888005F9300200AF0CFC0C8C050E8192E152287
:10089800880F991F9527550F879550E8072E052231
:1008A800660F771F7527550F67950895689401C0DF
:1008B800E8945F93F2DF703818F07F3F08F4A7C020
:1008C80056E1571BAAF4519558300EF4593030F0C0
:1008D800EFEFFFEF6FEF7FE777F91AC07727552320
:1008E800B9F0EE0FFF1F661F771F5A95D1F710C09A
:1008F8007727583028F0EF2FF62F672F5850F9CF69
:10090800552331F076956795F795E7955A95D1F780
:1009180000200AF445D15F910895689401C0E894D5
:10092800309760407040B1F0002426F0772312F42D
:10093800009436D1172E7EE1112032F07A95EE0F11
:10094800FF1F661F111CF9CFEF2FF62F612D5F9344
:100958008ADF5F9108954F93AF01FD01DA01AB0182
:10096800BC01CA01402D012C142E4F910895EA0FA5
:10097800FB1F681F0895E095F0956095EF5FFF4FA6
:100988006F4F08955F9381DF903871F150E8152615
:1009980004C05F937ADF903839F1703821F1572F0E
:1009A800591B2BF112F4D7DFFACF583118F0AA27C8
:1009B800BB278827583028F0AB2FB82F88275850E6
:1009C800F9CF552329F08695B795A7955A95D9F764
:1009D800502D512572F0CBDF38F46795F795E795E0
:1009E800739513F420C0B7DF3EDF5F910895D8F701
:1009F800FBCFEA1BFB0B680B51F010F40094BBDF34
:100A0800662392F3EE0FFF1F661F7A95CBF7EE274A
:100A1800FF27662777275F910895EFEFFFEF6FE7CE
:100A28007FEF5F910895EFEFFFEF6FE77FE75F914B
:100A380008955F932ADF703851F3903841F3012409
:100A48000894791F23F41CF300203AF3ECCF0F929B
:100A58001F932F933F934F93112722279927689F1E
:100A6800A0018F9F302D410D591F6B9F300D411DE7
:100A7800591F8E9F27D0BF9F25D06A9F23D0BE9F26
:100A88001DD0AF9F1BD0AE9F110D291F391F491FC5
:100A9800591FE32FF42F652F522F4F913F912F911C
:100AA8001F910F9066232AF0550FEE1FFF1F661F38
:100AB80002C073954BF2CDDE5F910895100D211D94
:100AC800391F02C0200D311D491F591F08955F931A
:100AD800DCDE703821F411200AF49FCFA4CF9038BF
:100AE80009F495CF01240894970B1BF4D4F3002044
:100AF800F3CF792F1F932F933F934F9311241127EF
:100B0800222733274427552790E2AE17BF078607C9
:100B1800410730F0AE1BBF0B860B410B089401C098
:100B28008894551F221F331F111CAA1FBB1F881F23
:100B3800441F9A9551F7F901612D4F913F912F91DB
:100B48001F91662332F0550FEE1FFF1F661F7A951F
:100B580043F27FDE5F91089599239AF0772342F05C
:100B6800971748F029F4AE17BF07860720F031F031
:100B7800989488940895989408940895189488945B
:100B880008957723C2F7971798F3A9F7EA17FB0791
:100B9800680788F399F3ECCFF195E195F040089553
:100BA800F09560957095E195FF4F6F4F7F4F0895D1
:100BB8006F2F660F660B762F0895FA9FF02DEB9F27
:100BC800F00DEA9FE02DF10D089504D0F6DF0EF444
:100BD800E3DF0895E894F7FF02C0DEDF6894B7FF0B
:100BE80006C0A095B095119600F8039400FA0895F0
:100BF800E881F9816A817B810895A881B9818A8118
:100C08009B810895E883F9836A837B8308957A93A7
:100C18006A93FA93EA9308959A938A93BA93AA9354
:100C28000895182E862F612D192E972F712D1B2EA2
:100C3800BF2FF12D1A2EAE2FE12D08953A932A9346
:100C48001A930A9308953B812A811981088108958E
:00000001FF
